:020000040000FA
:0600000059EF11F012009F
:0100060000F9
:0600080080EF19F0120068
:0600180000EF18F01200D9
:1002000000000F000E7A22200280000E0002383318
:100210002003000108000300202005000102000166
:0F0220002A312001000100000000000000000052
:10030000D9CFE6FFE1CFD9FF0F014451F36EFE0EC6
:10031000DBCFF4FFF350F45C02E3030ED4D0FE0E07
:10032000DB500C0DF3CFE9FFF4CFEAFF140EE92602
:100330000F0EEA22EF0402E1070EC5D0FC0EDBCF60
:1003400010F0FD0EDBCF11F0FE0EDB500C0DF3CFE5
:10035000E9FFF4CFEAFF140EE9260F0EEA22050E9C
:10036000E926000EEA22EE50EFCFEAFFE96EEECF6B
:1003700012F0EFCF13F01050125C1150135802E23C
:10038000080EA1D0FA0EDBCF10F0FB0EDBCF11F080
:10039000FE0EDB500C0DF3CFE9FFF4CFEAFF140E95
:1003A000E9260F0EEA22050EE926000EEA22EE509B
:1003B000EFCFEAFFE96E040EE926000EEA22EECF47
:1003C00012F0EFCF13F01250105C1350115822E3CB
:1003D000FA0EDBCF14F0FB0EDBCF15F0FE0EDB5078
:1003E0000C0DF3CFE9FFF4CFEAFF140EE9260F0E50
:1003F000EA22050EE926000EEA22EE50EFCFEAFFD0
:10040000E96EEECF16F0EFCF17F01450165C1550D2
:10041000175802E2080E57D0FC0EDBCF12F0FD0E8B
:10042000DBCF13F0FE0EDB500C0DF3CFE9FFF4CF62
:10043000EAFF140EE9260F0EEA22050EE926000E49
:10044000EA22EE50EFCFEAFFE96E060EE926000E33
:10045000EA221250EE24106E1350EE20116EFE0EA2
:10046000DB500C0DF3CFE9FFF4CFEAFF140EE926C1
:100470000F0EEA22EE5210C0EEFF11C0EDFFFE0E8D
:10048000DB500C0DF3CFE9FFF4CFEAFF140EE926A1
:100490000F0EEA22030EE926000EEA22FA0EDBCF47
:1004A000EEFFFB0EDBCFEDFFFE0EDB500C0DF3CFAE
:1004B000E9FFF4CFEAFF140EE9260F0EEA22010E3F
:1004C000EF6E000E00D0E552E7CFD9FF1200D9CF72
:1004D000E6FFE1CFD9FF0F014451F36EFE0EDBCFF3
:1004E000F4FFF350F45C02E3030EB3D0FE0EDB50D6
:1004F0000C0DF3CFE9FFF4CFEAFF140EE9260F0E3F
:10050000EA22EF0402E1070EA4D0FC0EDBCF10F0CC
:10051000FD0EDBCF11F0FE0EDB500C0DF3CFE9FF2B
:10052000F4CFEAFF140EE9260F0EEA22050EE926A3
:10053000000EEA22EE50EFCFEAFFE96EEECF12F0A6
:10054000EFCF13F01050125C1150135802E2080E56
:1005500080D0FA0EDBCF10F0FB0EDBCF11F0FE0ED9
:10056000DB500C0DF3CFE9FFF4CFEAFF140EE926C0
:100570000F0EEA22050EE926000EEA22EE50EFCF1A
:10058000EAFFE96E040EE926000EEA22EECF12F031
:10059000EFCF13F01250105C1350115822E3FA0EF3
:1005A000DBCF14F0FB0EDBCF15F0FE0EDB500C0D95
:1005B000F3CFE9FFF4CFEAFF140EE9260F0EEA228B
:1005C000050EE926000EEA22EE50EFCFEAFFE96EB3
:1005D000EECF16F0EFCF17F01450165C15501758E9
:1005E00002E2080E36D0FE0EDB500C0DF3CFE9FF11
:1005F000F4CFEAFF140EE9260F0EEA22EE52FC0EAB
:10060000DBCFEEFFFD0EDBCFEDFFFE0EDB500C0D62
:10061000F3CFE9FFF4CFEAFF140EE9260F0EEA222A
:10062000030EE926000EEA22FA0EDBCFEEFFFB0EE8
:10063000DBCFEDFFFE0EDB500C0DF3CFE9FFF4CF67
:10064000EAFF140EE9260F0EEA22010EEF6E000EED
:1006500000D0E552E7CFD9FF1200D9CFE6FFE1CFB6
:10066000D9FF0F014451F36EFE0EDBCFF4FFF350C0
:10067000F45C02E3030E48D0FE0EDB500C0DF3CF0A
:10068000E9FFF4CFEAFF140EE9260F0EEA22EF503D
:1006900002E1050E39D0FE0EDB500C0DF3CFE9FF61
:1006A000F4CFEAFF140EE9260F0EEA22EE52EECF47
:1006B00012F0EFCF13F0FE0EDB500C0DF3CFE9FF7D
:1006C000F4CFEAFF140EE9260F0EEA22050EE92602
:1006D000000EEA22EE50EFCFEAFFE96E060EE926A1
:1006E000000EEA22EE50125C106EEE501358116E9E
:1006F000FC0EDBCFE9FFFD0EDBCFEAFF10C0EEFF03
:1007000011C0EDFF000E00D0E552E7CFD9FF120077
:10071000D9CFE6FFE1CFD9FF0F014451F36EFE0EB2
:10072000DBCFF4FFF350F45C02E3030E1DD0FE0EAA
:10073000DB500C0DF3CFE9FFF4CFEAFF140EE926EE
:100740000F0EEA22EF5002E1050E0ED0FE0EDB5036
:100750000C0DF3CFE9FFF4CFEAFF140EE9260F0EDC
:10076000EA22EF6A000E00D0E552E7CFD9FF12006F
:10077000D9CFE6FFE1CFD9FF0F014451F36EFE0E52
:10078000DBCFF4FFF350F45C02E3030E1FD0FE0E48
:10079000DB500C0DF3CFE9FFF4CFEAFF140EE9268E
:1007A0000F0EEA22050EE926000EEA22EE50EFCFE8
:1007B000EAFFE96EE9CF10F0EACF11F0FC0E10C0AD
:1007C000DBFFFD0E11C0DBFF000E00D0E552E7CFCE
:1007D000D9FF1200D9CFE6FFE1CFD9FF0F01445175
:1007E000F36EFE0EDBCFF4FFF350F45C02E3030E76
:1007F00055D1FE0EDB500C0DF3CFE9FFF4CFEAFF2D
:10080000140EE9260F0EEA22EF5002E1010E46D146
:10081000FE0EDB500C0DF3CFE9FFF4CFEAFF140E10
:10082000E9260F0EEA22050EE926000EEA22EE5016
:10083000EFCFEAFFE96E060EE926000EEA22EE2A65
:10084000EF22FE0EDB500C0DF3CFE9FFF4CFEAFFF1
:10085000140EE9260F0EEA22050EE926000EEA2202
:10086000EE50EFCFEAFFE96E060EE926000EEA220F
:10087000EECF10F0EFCF11F0FE0EDB500C0DF3CFEA
:10088000E9FFF4CFEAFF140EE9260F0EEA22EE523A
:10089000EECF12F0EFCF13F01250101802E1135008
:1008A000111801E0F9D0FE0EDB500C0DF3CFE9FF7B
:1008B000F4CFEAFF140EE9260F0EEA22030EE92612
:1008C000000EEA22EE50ED100DE1FE0EDB500C0D95
:1008D000F3CFE9FFF4CFEAFF140EE9260F0EEA2268
:1008E000EF6A40D0FE0EDB500C0DF3CFE9FFF4CFE2
:1008F000EAFF140EE9260F0EEA22050EE926000E85
:10090000EA22EE50EFCFEAFFE96E060EE926000E6E
:10091000EA22EECF12F0EFCF13F0FE0EDB500C0DFB
:10092000F3CFE9FFF4CFEAFF140EE9260F0EEA2217
:10093000030EE926000EEA221250EE24106E135028
:10094000EE20116EFE0EDB500C0DF3CFE9FFF4CF5D
:10095000EAFF140EE9260F0EEA22EE5210C0EEFF57
:1009600011C0EDFFFE0EDB500C0DF3CFE9FFF4CF0D
:10097000EAFF140EE9260F0EEA22080EE926000E01
:10098000EA22EE50ED1026E0FE0EDB500C0DF3CF08
:10099000E9FFF4CFEAFF140EE9260F0EEA22080E53
:1009A000E926000EEA22EF50E66EFE0EDB500C0D3B
:1009B000F3CFE9FFF4CFEAFF140EE9260F0EEA2287
:1009C000070EE926000EEA22EF50E66E5FEC0BF010
:1009D000E552E552FE0EDB500C0DF3CFE9FFF4CFEC
:1009E000EAFF140EE9260F0EEA22070EE926000E92
:1009F000EA22EF5026E0FE0EDB500C0DF3CFE9FFAC
:100A0000F4CFEAFF140EE9260F0EEA22080EE926BB
:100A1000000EEA22EE50ED1014E1FE0EDB500C0D3C
:100A2000F3CFE9FFF4CFEAFF140EE9260F0EEA2216
:100A3000070EE926000EEA22EF50E66E24EC08F0DD
:100A4000E552FE0EDB500C0DF3CFE9FFF4CFEAFFC9
:100A5000140EE9260F0EEA220A0EE926000EEA22FB
:100A6000EE50ED1019E0FE0EDB500C0DF3CFE9FF58
:100A7000F4CFEAFF140EE9260F0EEA220A0EE92649
:100A8000000EEA22EECF10F0EFCF11F004D011C02B
:100A9000FAFF1050F96EFBDF030E00D0E552E7CFEE
:100AA000D9FF1200D9CFE6FFE1CFD9FF0F014451A2
:100AB000F36EFE0EDBCFF4FFF350F45C02E3030EA3
:100AC00036D0FE0EDB500C0DF3CFE9FFF4CFEAFF7A
:100AD000140EE9260F0EEA22EF5002E1010E27D094
:100AE000FE0EDB500C0DF3CFE9FFF4CFEAFF140E3E
:100AF000E9260F0EEA22050EE926000EEA22EE5044
:100B0000EFCFEAFFE96E060EE926000EEA22EECFED
:100B100010F0EFCF11F0FC0EDBCFE9FFFD0EDBCFC5
:100B2000EAFF10C0EEFF11C0EDFF000E00D0E5524D
:100B3000E7CFD9FF1200D9CFE6FFE1CFD9FF030EEF
:100B4000E126010ED6CFDBFF020ED7CFDBFFD95057
:100B5000010FE96EDACFEAFF0F017A51EE267B51E1
:100B6000ED22020EDB50D76E010EDB50D66EF294F2
:100B70000F01102B000E11230F01462B4723482392
:100B80004923DF6A0F014451DF5C01E32BD1DF50C1
:100B90000C0DF3CFE9FFF4CFEAFF140EE9260F0E98
:100BA000EA22EF5001E11CD1DF500C0DF3CFE9FF39
:100BB000F4CFEAFF140EE9260F0EEA22050EE9260D
:100BC000000EEA22EE50EFCFEAFFE96E060EE926AC
:100BD000000EEA22EECF10F0EFCF11F0DF500C0D37
:100BE000F3CFE9FFF4CFEAFF140EE9260F0EEA2255
:100BF000EE52EECF12F0EFCF13F01250101802E1C8
:100C00001350111801E0ECD0DF500C0DF3CFE9FFC9
:100C1000F4CFEAFF140EE9260F0EEA22030EE926AE
:100C2000000EEA22EE50ED100CE1DF500C0DF3CF78
:100C3000E9FFF4CFEAFF140EE9260F0EEA22EF6A6D
:100C40003DD0DF500C0DF3CFE9FFF4CFEAFF140ED7
:100C5000E9260F0EEA22050EE926000EEA22EE50E2
:100C6000EFCFEAFFE96E060EE926000EEA22EECF8C
:100C700012F0EFCF13F0DF500C0DF3CFE9FFF4CFFC
:100C8000EAFF140EE9260F0EEA22030EE926000EF3
:100C9000EA221250EE24106E1350EE20116EDF5037
:100CA0000C0DF3CFE9FFF4CFEAFF140EE9260F0E87
:100CB000EA22EE5210C0EEFF11C0EDFFDF500C0D26
:100CC000F3CFE9FFF4CFEAFF140EE9260F0EEA2274
:100CD000080EE926000EEA22EE50ED1024E0DF5067
:100CE0000C0DF3CFE9FFF4CFEAFF140EE9260F0E47
:100CF000EA22080EE926000EEA22EF50E66EDF50E7
:100D00000C0DF3CFE9FFF4CFEAFF140EE9260F0E26
:100D1000EA22070EE926000EEA22EF50E66E5FECAB
:100D20000BF0E552E552DF500C0DF3CFE9FFF4CFA5
:100D3000EAFF140EE9260F0EEA22070EE926000E3E
:100D4000EA22EF5024E0DF500C0DF3CFE9FFF4CF9F
:100D5000EAFF140EE9260F0EEA22080EE926000E1D
:100D6000EA22EE50ED1013E1DF500C0DF3CFE9FF56
:100D7000F4CFEAFF140EE9260F0EEA22070EE92649
:100D8000000EEA22EF50E66E24EC08F0E552DF5048
:100D90000C0DF3CFE9FFF4CFEAFF140EE9260F0E96
:100DA000EA220A0EE926000EEA22EE50ED1018E0C3
:100DB000DF500C0DF3CFE9FFF4CFEAFF140EE92664
:100DC0000F0EEA220A0EE926000EEA22EECF10F0FC
:100DD000EFCF11F004D011C0FAFF1050F96EFBDF15
:100DE000DF2AD0D600016E85030EE15C03E200D05D
:100DF000E16AE552E16EE552E7CFD9FF1200D9CFA3
:100E0000E6FFE1CFD9FF030EE126D950010FE96ECD
:100E1000DACFEAFFA00EEE6E000EED6EDF6A100E66
:100E2000DF5C3DE2010EDBCFE9FF020EDBCFEAFF24
:100E3000EF500F0B106EFD0EDB50105C29E1DF5000
:100E4000116AB00F106E000E1122010E10C0DBFFF0
:100E5000020E11C0DBFF010EDBCFE9FF020EDBCF7C
:100E6000EAFFEF50F00BE66E010EDBCFE9FF020E5A
:100E7000DBCFEAFFE552E750EF6E010EDBCFE9FF73
:100E8000020EDBCFEAFFFE0EDB50EF26000E09D08C
:100E9000010EDB2A020E01E3DB2ADF2AC0D7030E94
:100EA00000D0106E030EE15C02E2E16AE552E16EF1
:100EB0001050E552E7CFD9FF1200D9CFE6FFE1CFBE
:100EC000D9FF030EE126D950010FE96EDACFEAFF10
:100ED000A00EEE6E000EED6EDF6A100EDF5C34E2E7
:100EE000010EDBCFE9FF020EDBCFEAFFEF500F0B65
:100EF000106EFC0EDB50105C20E1DF50116AB00F69
:100F0000106E000E1122010E10C0DBFF020E11C088
:100F1000DBFF010EDBCFE9FF020EDBCFEAFFEF5074
:100F20000F0BE66EFD0EDBCFE9FFFE0EDBCFEAFF17
:100F3000E552E750EF6E000E09D0010EDB2A020EDB
:100F400001E3DB2ADF2AC9D7030E00D0106E030E9F
:100F5000E15C02E2E16AE552E16E1050E552E7CF52
:100F6000D9FF1200D9CFE6FFE1CFD9FF00016A35E2
:100F700014E2100E0001E76E6A19E8AE02D0E73401
:100F800002D0E7506A5D09E2FD0EDBCFE9FFFE0EFD
:100F9000DBCFEAFF6AC0EFFF08D0FD0EDBCFE9FF31
:100FA000FE0EDBCFEAFF100EEF6E000E00D0E55212
:100FB000E7CFD9FF1200D9CFE6FFE1CFD9FF030E6B
:100FC000E126D950010FE96EDACFEAFFA00EEE6EEE
:100FD000000EED6EDF6A100EDF5C28E2010EDBCF43
:100FE000E9FF020EDBCFEAFFEF500F0B106EFE0E93
:100FF000DB50105C14E1010EDBCFE9FF020EDBCF0A
:10100000EAFFEF50E00BE66EFC0EDBCFE9FFFD0ED2
:10101000DBCFEAFFE552E750EF6E000E09D0010E7C
:10102000DB2A020E01E3DB2ADF2AD5D7030E00D02C
:10103000106E030EE15C02E2E16AE552E16E1050CF
:10104000E552E7CFD9FF1200D9CFE6FFE1CFD9FFB4
:10105000030EE126D950010FE96EDACFEAFFA00EA8
:10106000EE6E000EED6EDF6A100EDF5C57E2010ED1
:10107000DBCFE9FF020EDBCFEAFFEF500F0B106E64
:10108000FE0EDB50105C43E1010EDBCFE9FF020EE8
:10109000DBCFEAFFEF50E00B16E10F0E106E010EF2
:1010A000DBCFE9FF020EDBCFEAFF1050EF16200E78
:1010B000106E010EDBCFE9FF020EDBCFEAFF10500E
:1010C000EF2616D922D0DF50116AB00F106E000E35
:1010D0001122010E10C0DBFF020E11C0DBFF010E5A
:1010E000DBCFE9FF020EDBCFEAFFEF50F00B106E13
:1010F000F00E105C0AE2100E106E010EDBCFE9FF5D
:10110000020EDBCFEAFF1050EF26000E09D0010ED1
:10111000DB2A020E01E3DB2ADF2AA6D7030E00D06A
:10112000106E030EE15C02E2E16AE552E16E1050DE
:10113000E552E7CFD9FF1200D9CFE6FFE1CFD9FFC3
:10114000030EE126D950010FE96EDACFEAFFA00EB7
:10115000EE6E000EED6EDF6A100EDF5C54E2010EE3
:10116000DBCFE9FF020EDBCFEAFFEF500F0B0001F0
:101170006A5D42E1DF50116AB00F106E000E11225D
:10118000010E10C0DBFF020E11C0DBFF010EDBCF32
:10119000E9FF020EDBCFEAFFEF50E00B20E1DF506A
:1011A000116AA00F106E000E1122010E10C0DBFF9D
:1011B000020E11C0DBFF0F0E106E010EDBCFE9FF38
:1011C000020EDBCFEAFF1050EF16010EDBCFE9FF76
:1011D000020EDBCFEAFFF29C1BEF0FF00DD0100EDA
:1011E000106E010EDBCFE9FF020EDBCFEAFF1050DD
:1011F000EF5EF29C1BEF0FF0010EDB2A020E01E303
:10120000DB2ADF2AA9D7000E00D0106E030EE15CA6
:1012100002E2E16AE552E16E1050E552E7CFD9FFF4
:101220001200D9CFE6FFE1CFD9FF030EE126D95056
:10123000010FE96EDACFEAFFA00EEE6E000EED6E42
:10124000DF6A100EDF5C43E2010EDBCFE9FF020E26
:10125000DBCFEAFFEF500F0B00016A5D10E10F0ECC
:10126000106E010EDBCFE9FF020EDBCFEAFF10505C
:10127000EF16010EDBCFE9FF020EDBCFEAFF010E16
:10128000DBCFE9FF020EDBCFEAFFEF500F0B106E52
:10129000FE0EDB50105C14E10F0E106E010EDBCF62
:1012A000E9FF020EDBCFEAFF1050EF16200E106EA2
:1012B000010EDBCFE9FF020EDBCFEAFF1050EF2675
:1012C000010EDB2A020E01E3DB2ADF2ABAD7F29CE9
:1012D0001BEF0FF0000E00D0106E030EE15C02E277
:1012E000E16AE552E16E1050E552E7CFD9FF1200F6
:1012F000F29C00016E8500016EA302D0000E46D064
:1013000000016E9500016EA13DD0F29CD8CFE4FFA4
:10131000E8CFE4FFE0CFE4FFD9CFE4FFDACFE4FF8A
:10132000E9CFE4FFEACFE4FFF8CFE4FFF7CFE4FF33
:10133000F6CFE4FFF5CFE4FFF4CFE4FFF3CFE4FF13
:10134000210EE96AEA6AE850E806000903E0EECFF8
:10135000E4FFF9D7FCCFE9FFFC50000808E2FDCF1D
:10136000E4FFFECFE4FFFFCFE4FF0600F5D7E9CFAF
:10137000E4FFE45278CFE9FF79CFEAFFE1CFEEFF57
:10138000E2CFEEFFEEEF0DF0000E00D012000F01E5
:10139000775100D01200D9CFE6FFE1CFD9FFF29C00
:1013A000D8CFE4FFE8CFE4FFE0CFE4FFD9CFE4FFFC
:1013B000DACFE4FFE9CFE4FFEACFE4FFF8CFE4FFC0
:1013C000F7CFE4FFF6CFE4FFF5CFE4FFF4CFE4FF7F
:1013D000F3CFE4FF210EE96AEA6AE850E806000963
:1013E00003E0EECFE4FFF9D7FCCFE9FFFC500008A3
:1013F00008E2FDCFE4FFFECFE4FFFFCFE4FF0600ED
:10140000F5D7E9CFE4FFE452E1CFE9FFE2CFEAFF0D
:10141000E1CFEEFFE2CFEEFFE1CF76FFE2CF75FF47
:10142000FE0EDBCF77FFFC6A5EEF0DF0E552E7CFF3
:10143000D9FF1200D9CFE6FFE1CFD9FF76CFE1FF88
:1014400075CFE2FF58EC0EF0E552E7CFD9FF12005E
:10145000F29CD8CFE4FFE8CFE4FFE0CFE4FFD9CFA0
:10146000E4FFDACFE4FFE9CFE4FFEACFE4FFF8CF0F
:10147000E4FFF7CFE4FFF6CFE4FFF5CFE4FFF4CFCE
:10148000E4FFF3CFE4FF210EE96AEA6AE850E806D8
:10149000000903E0EECFE4FFF9D7FCCFE9FFFC50F1
:1014A000000808E2FDCFE4FFFECFE4FFFFCFE4FF3A
:1014B0000600F5D7E9CFE4FFE45278CFE9FF79CF12
:1014C000EAFFE1CFEEFFE2CFEEFFB9EF0DF0120041
:1014D000D9CFE6FFE1CFD9FFFD0EDBCF10F0FE0E36
:1014E000DBCF11F00F014D51126E136A1250105CD8
:1014F0001350115802E3030E73D0FD0EDBCFE9FF4A
:10150000FE0EDBCFEAFF030EEA02F3CFEAFFE902A9
:10151000F3CFE9FFF450EA264A0EE9260F0EEA223D
:10152000020EE926000EEA22EF0402E1010E58D075
:101530006AC0E6FFFD0EDBCFE9FFFE0EDBCFEAFF60
:10154000030EEA02F3CFEAFFE902F3CFE9FFF4501A
:10155000EA264A0EE9260F0EEA22EE52E9CF10F0F3
:10156000EACF11F010C0E6FF11C0E6FFA6DCE5529D
:10157000E552E5526AC0E6FFFD0EDBCFE9FFFE0E45
:10158000DBCFEAFF030EEA02F3CFEAFFE902F3CF73
:10159000E9FFF450EA264A0EE9260F0EEA22EF5040
:1015A000E66E2DDCE552E552FD0EDBCFE9FFFE0EC7
:1015B000DBCFEAFF030EEA02F3CFEAFFE902F3CF43
:1015C000E9FFF450EA264A0EE9260F0EEA22020E3F
:1015D000E926000EEA22010EEF6E3ADF000E00D07F
:1015E000E552E7CFD9FF1200D9CFE6FFE1CFD9FF0F
:1015F000FD0EDBCF10F0FE0EDBCF11F00F014D51D1
:10160000126E136A1250105C1350115802E3030E4D
:1016100052D0FD0EDBCFE9FFFE0EDBCFEAFF030E5B
:10162000EA02F3CFEAFFE902F3CFE9FFF450EA263A
:101630004A0EE9260F0EEA22020EE926000EEA22E1
:10164000EF5002E1010E37D06AC0E6FFFD0EDBCF9E
:10165000E9FFFE0EDBCFEAFF030EEA02F3CFEAFF5B
:10166000E902F3CFE9FFF450EA264A0EE9260F0E0D
:10167000EA22EE52EF50E66EFFEC06F0E552E5523C
:10168000FD0EDBCFE9FFFE0EDBCFEAFF030EEA0221
:10169000F3CFEAFFE902F3CFE9FFF450EA264A0E5E
:1016A000E9260F0EEA22020EE926000EEA22EF6A70
:1016B000CFDE000E00D0E552E7CFD9FF1200D9CF20
:1016C000E6FFE1CFD9FF030EE126D950010FE96E05
:1016D000DACFEAFFA00EEE6E000EED6EDF6A100E9E
:1016E000DF5C71E2010EDBCFE9FF020EDBCFEAFF28
:1016F000EF500F0B106EFE0EDB50105C5DE1010E23
:10170000DBCFE9FF020EDBCFEAFFEF50200B02E157
:10171000070E60D0DF50116A800F106E000E11228C
:10172000010E10C0DBFF020E11C0DBFF010EDBCF8C
:10173000E9FF020EDBCFEAFFFD0EDB50EF12DF50B8
:10174000116A900F106E000E1122010E10C0DBFF07
:10175000020E11C0DBFFFD0EDBCFE6FF010EDBCF7B
:10176000E9FF020EDBCFEAFFEF50E552E71403E199
:10177000000E30D021D0DF50116AA00F106E000E85
:101780001122010E10C0DBFF020E11C0DBFF0F0E95
:10179000106E010EDBCFE9FF020EDBCFEAFF105027
:1017A000EF16010EDBCFE9FF020EDBCFEAFFEF8A77
:1017B00078EC09F0000E0ED0DF2A010EDB2A020EB3
:1017C00001E3DB2A8CD7100EDF5C02E1030E02D0AE
:1017D000000E00D0106E030EE15C02E2E16AE552F9
:1017E000E16E1050E552E7CFD9FF1200D9CFE6FFE6
:1017F000E1CFD9FF030EE126D950010FE96EDACF10
:10180000EAFFA00EEE6E000EED6EDF6A100EDF5CDA
:1018100042E2010EDBCFE9FF020EDBCFEAFFEF5021
:101820000F0B00016A5D30E1DF50116A800F106E0E
:10183000000E1122010E10C0DBFF020E11C0DBFFF3
:10184000FE0EDB1C106E010EDBCFE9FF020EDBCFBC
:10185000EAFF1050EF16DF50116A900F106E000E65
:101860001122010E10C0DBFF020E11C0DBFFFE0EC5
:10187000DB1C106E010EDBCFE9FF020EDBCFEAFFAF
:101880001050EF16000E09D0DF2A010EDB2A020EDF
:1018900001E3DB2ABBD7000E00D0106E030EE15C23
:1018A00002E2E16AE552E16E1050E552E7CFD9FF5E
:1018B0001200D9CFE6FFE1CFD9FF030EE126D950C0
:1018C000010FE96EDACFEAFFA00EEE6E000EED6EAC
:1018D000DF6A100EDF5C3EE2010EDBCFE9FF020E95
:1018E000DBCFEAFFEF500F0B106EFE0EDB50105CEB
:1018F0002AE1010EDBCFE9FF020EDBCFEAFFEF505A
:10190000E00B02E1070E2DD0DF50116A800F106E40
:10191000000E1122010E10C0DBFF020E11C0DBFF12
:10192000010EDBCFE9FF020EDBCFEAFFEF50E66EE0
:10193000FC0EDBCFE9FFFD0EDBCFEAFFE552E750FF
:10194000EF6E000E0ED0DF2A010EDB2A020E01E33D
:10195000DB2ABFD7100EDF5C02E1030E02D0000EBF
:1019600000D0106E030EE15C02E2E16AE552E16E26
:101970001050E552E7CFD9FF1200D9CFE6FFE1CFF3
:10198000D9FF030EE126D950010FE96EDACFEAFF45
:10199000A00EEE6E000EED6EDF6A100EDF5C5CE2F4
:1019A000010EDBCFE9FF020EDBCFEAFFEF500F0B9A
:1019B00000016A5D4AE1F29CDF50116A900F106EDF
:1019C000000E1122010E10C0DBFF020E11C0DBFF62
:1019D000010EDBCFE9FF020EDBCFEAFFFE0EDBCF0D
:1019E000EFFFDF50116A800F106E000E1122010E02
:1019F00010C0DBFF020E11C0DBFFFE0EDBCFE6FFE7
:101A0000010EDBCFE9FF020EDBCFEAFFEF50E5521C
:101A1000E71418E1DF50116AA00F106E000E1122BA
:101A2000010E10C0DBFF020E11C0DBFF800E106E36
:101A3000010EDBCFE9FF020EDBCFEAFF1050EF26ED
:101A400078EC09F0F28C000E0ED0DF2A010EDB2AB2
:101A5000020E01E3DB2AA1D7100EDF5C02E1030EC8
:101A600002D0000E00D0106E030EE15C02E2E16ACB
:101A7000E552E16E1050E552E7CFD9FF1200F28E29
:101A8000F28C1200F29EF29C1200F28EF28C120086
:101A9000F29EF29C1200F28C1200F29C12006EC0B8
:101AA0007DFF00016E83120000016EA504D07DCF82
:101AB0006EF078EC09F07DCF6EF01200EA6AE96A08
:101AC000E16AE26AF86AFA6AFF0EEE6AE962FDD735
:101AD000EE6AEA6AFC6A1F0EFC2AFF6AFE6AFD6A69
:101AE000FC62FAD7FC6AFC2A880ED56E9D6AA06A51
:101AF000D06A9F6AA26A800EF16ED08EA00EF26E3E
:101B0000F2840001010EFC6E6B6B6D6F6A6BEA6A0A
:101B1000B00EE96EF86A4FCFF7FF4ECFF6FF09001F
:101B2000F550D8B429D0F5CFEFFF0900F550E16E9C
:101B30000900F550E26EE550AD0EE56EDE0EE76E83
:101B4000E650E65009000900E9980900F550EF2633
:101B50000900F550EF260900F550E126E86AE22277
:101B60000900E550AD0EE56EDE0EE76EE92AE98864
:101B7000D6D700016D6B6D2BEA6AB00EE96E6D5120
:101B8000D8B42CD06D6B0F0EEF146B6FD8B4F4D7A4
:101B9000EFCF6CF00F0EEC146B6301D0F4D76B65D4
:101BA00001D0F1D7ED50EE6E6CC0EFFFE998EDCFAC
:101BB0006CF0EF506CC0EEFFEF6EE99AEDCF6CF079
:101BC000EF506CC0EEFFEF6EE988EDCF6CF0EF5098
:101BD0006CC0EEFFEF6EE98A6D2BD5D700016E91D8
:101BE0006A51D8B430D0EA6A9F0EE96EE92A1F0E16
:101BF000EF146A63FBD7EF9C6A6BE9880F0EEF1452
:101C00006B6F0F0EEC146B631ED000D0EDCF6CF039
:101C1000EF506CC0EEFFEF6EE998EDCF6CF0EF5037
:101C20006CC0EEFFEF6EE99AEDCF6CF0EF506CC038
:101C3000EEFFEF6EE988EDCF6CF0EF506CC0EEFF79
:101C4000EF6EE98ADED7EA6A9F0EE96EE92AEFAA0B
:101C500074D0EFBE72D00001EF8C1F0EEF146A6FCC
:101C600000016E81F86A4FCFF7FF4ECFF6FF060EE8
:101C7000F626E86AF72200016A510900F56201D0F0
:101C800005D0080EF626E86AF722F6D7060EF65EAD
:101C9000E86AF75A0900F550E96E0900F550EA6E56
:101CA0000900F550706F0900F550716FA8EF0EF044
:101CB0000001E5CF6BF0E5CF6BF0FC6A0500E55065
:101CC000FF6EE550FE6EE550FD6EFC506B63F6D77F
:101CD000EA6A1F0EE96EE5CFEDFFE950D8A8FBD701
:101CE000E5CFF3FFE5CFF4FFE5CFF5FFE5CFF6FF56
:101CF000E5CFF7FFE5CFF8FFE5CFEAFFE5CFE9FF56
:101D0000E5CFDAFFE5CFD9FFE5CFE0FFE5CFE8FF8C
:101D1000E5CFD8FFF28C1000E9CFE1FFE9CFD9FF82
:101D2000EACFE2FFEACFDAFFFC6AFC2A7051FD6ECF
:101D30007151FE6EFF6AF28C1000AF0EE95C86E115
:101D400075CFE2FF76CFE1FF0001F28CFC6AFCD791
:101D5000E9CF78FFEACF79FFEDCFE8FFAD0EEDCF09
:101D6000E1FFE162F5EF0EF0DE0EEDCFE1FFE162A3
:101D7000F5EF0EF0F86A4FCFF7FF4ECFF6FF060EE5
:101D8000F626E86AF72200016A510900F56201D0DF
:101D900005D0080EF626E86AF722F6D778CFE9FFD5
:101DA00079CFEAFF0900F550E926E86AEA2209003E
:101DB000EDCFE8FFAD0EEDCFE1FFE16207EF0FF0F1
:101DC000DE0EEDCFE1FFE16207EF0FF078CFE9FF24
:101DD00079CFEAFFEECFE1FFEECFE2FFE150D8A4EA
:101DE00067D7E250D8B498D763D7EA6A9F0EE96EF6
:101DF000E92A1F0EEF146A63FBD7EF9AEF9CEF9E60
:101E00006FC0E8FFF00B6A25E8CF6FF0E7D6EA6A0B
:101E10009F0EE96EE92A1F0EEF146A63FBD7EF9A53
:101E2000EF9CEF9E6FC0E8FFE838F00B6A25E838BA
:101E3000E8CF6FF0D3D6F86A4FCFF7FF4ECFF6FF5B
:101E4000060EF626E86AF72200016A510900F562DB
:101E500001D005D0080EF626E86AF722F6D7060E5E
:101E6000F65EE86AF75A0900F550E96E0900F55088
:0C1E7000EA6EE86AEE6EEF6EEEEF0DF029
:102000008E0EC16EC26A89D8010EE66EBDEC0CF070
:10201000E552010EE66EF6EC0BF0E55211D8F4D75E
:10202000EAD8FE0EDB50010A06E0010A08E1FD0EC7
:10203000DB50800F03D0FD0EDB50C00FEAD80BD170
:10204000DAD8020EE126E5D8DF6A020EDF5C1EE276
:10205000E66ADFCFE6FFE4DFE552E552010EDB6A18
:10206000100EF36E010EDBCFF4FFF350F45C0CE2C4
:10207000DF50B2D8010EDB50F9D8EF50E66E1CD815
:10208000E552010EDB2AECD7DF2ADFD7020EE15C36
:1020900002E2E16AE552E16EDED0ADD88D9488D0DF
:1020A000AAD8C9D808E0CFD801E3DB2AEF50E66E02
:1020B00003D8E552F6D7CFD09ED88D8479D08D82C3
:1020C0008D92120098D8000EE66EE66AFD0EDBCF08
:1020D000E6FFFE0EDBCFE6FF020EE66E80EC01F0BF
:1020E000106E050EE15E1050800EE66EBDEC0CF039
:1020F000E552000EE66E040EE66E050EE66E59EC35
:102100000CF0E552E552E552040100AF05D0800E17
:10211000E66EF6EC0BF0E5529ED0926A966A806A03
:10212000846A8D928D948C988C9A8C9C8C9E939AB8
:1021300093949598959A959C959E8D928D946DD833
:102140006CD86BD80F0E8316838AB9DF2C0E61D83A
:102150000C0E5FD8010E09EF11F04DD86CD80EE0CF
:1021600072D801E3DB2AEF50E66EFB0EDB5034D869
:10217000FC0EDB503BD8FC0EDB2AF0D741D86BD0ED
:102180003AD851D807506BD8DB5030D84CD80350D0
:1021900066D8DB282BD834D85ED0010E3AD800EFB1
:1021A00011F0010EE66EE66A8DDFE552E55212008F
:1021B0000F0E8314836EFE0EDB50F00B8310836EC4
:1021C0007EDF0F0E8314836EFE0EDB38F00BF00BF8
:1021D0008310836E74DF3FD0100DF3CF10F0F4CF77
:1021E00011F0010E1026040E112212003FD8E55204
:1021F000E750EF6E1200D9CFE6FFE1CFD9FF120012
:10220000010EE66E050EE66E5FEC0BF0E552E55250
:102210001200E66E42DFE55212000F0E8316300EFA
:1022200083125FEF10F00A0E126E0C6EFE0EDBCF03
:1022300007F06FEF11F0FD0EDBCFE9FFFE0EDBCFF5
:10224000EAFFEF501200FD0EDBCFE9FFDB2AFE0EA6
:10225000DBCFEAFF1200E552E7CFD9FF1200300FC3
:10226000E66EFC0EDB50B8DFFD0E12000F011024ED
:0A227000E96E000E1120EA6E120064
:06227A00020EE66EBDEC51
:102280000CF0E552020EE66EF6EC0BF0E552470E4E
:102290000401295DF2E10F01010E726F800EE66EFE
:1022A000030EE66E5FEC0BF0E552E5529CEC08F095
:0222B000E4D771
:0E22B2001EEE80F02EEE80F0F86A0F9CFF0EFC
:1022C000E96E0E0EEA6E010E006E000EED6E00520B
:0E22D000FDE1C2EC18F04DEC19F0FDD7120044
:0222DE00036A91
:1022E000080EE76ED890073603360C50035C02E305
:0A22F000036E072AE72EF7D712004D
:0622FA002020202020201E
:10230000474F4C4420202020202000202020202047
:0F2310002052555348202020202020000001009B
:01231F00C8F5
:10232000000A00640000000000FFFF010000000040
:1023300000000000000000000A0F02800000000002
:10234000000000000A0F03800000000000000000F1
:102350000A0F058000000000000000000A0F018045
:0F2360000000000401000000000A00000102025A
:10300000D8CFE4FFE0CFE4FFE46EDACFE4FFE2CF15
:10301000DAFFE9CFE4FFEACFE4FFF6CFE4FFF7CF32
:10302000E4FFF5CFE4FFF3CFE4FFF4CFE4FFFACF02
:10303000E4FF00EE00F0100EE80403E3EECFE4FF3F
:10304000FBD700EE10F0080EE80403E3EECFE4FF38
:10305000FBD7E6524FEC0DF0F2A402D09BEC05F04A
:103060009EAA03D02FEC19F09E9A9EA808D0ABA27E
:1030700003D0AB980000AB8811EC19F09E98ABA27E
:1030800003D0AB980000AB8854EC0DF0E55200EE95
:1030900017F0080EE80403E3E5CFEDFFFBD700EEE1
:1030A0000FF0100EE80403E3E5CFEDFFFBD7E5CF0B
:1030B000FAFFE5CFF4FFE5CFF3FFE5CFF5FFE5CF6E
:1030C000F7FFE5CFF6FFE5CFEAFFE5CFE9FFE5CF74
:0E30D000DAFFE550E5CFE0FFE5CFD8FF1000B6
:0230DE000401EB
:1030E000240E216F460E226F3A0E236F0401030E49
:1030F0002D6F0401266B11EC19F00F01742B1200D7
:103100000401240E216F450E226F4E0E236F440ED4
:10311000246F3A0E256F0401050E2D6F0401266BF6
:1031200011EC19F00F01726B1200640EE66EE66A84
:10313000FA0EE66EE66A030EE66E80EC01F0106EA3
:10314000050EE15E1050800EE66EBDEC0CF0E5520F
:10315000800EE66EF6EC0BF0E5520F01725109E0BD
:10316000280E0F01745D04E1CBDF9CEC08F001D068
:10317000B6DF800EE66E030EE66E5FEC0BF0E552F6
:04318000E552E1D75C
:0C318400120EF66E330EF76E000EF86EA1
:1031900000010900F550656F0900F550666F03E105
:1031A000656701D03DD00900F550606F0900F5500A
:1031B000616F0900F550626F09000900F550E96E72
:1031C0000900F550EA6E090009000900F550636F27
:1031D0000900F550646F09000900F6CF67F0F7CFDA
:1031E00068F0F8CF69F060C0F6FF61C0F7FF62C019
:1031F000F8FF0001635302E1645307E00900F55052
:10320000EE6E6307F8E26407F9D767C0F6FF68C09F
:10321000F7FF69C0F8FF00016507000E665BBFD7C6
:0232200012009A
:0E32220004012D51E76E2619E8AE02D0E73404
:1032300002D0E750265D0FE226C4E9FFEA6AE9BE44
:10324000EA68210EE926040EEA22EF50AD6E262B25
:10325000AC8A9D881200266B9D98AC9A1200AECF66
:1032600027F43A0E0401275D0EE07ECFE9FFEA6AFB
:10327000E9BEEA68280EE926040EEA2227C4EFFF19
:103280000F017E2B12000F017E6B020EE66EE66EC2
:0A3290005FEC0BF0E552E55212006E
:06329A00FC6A0F017C6BD1
:1032A00006D87CCFE6FFCBEC09F0E552FAD7EA6A04
:1032B000E96A0F014F0E7A6FF60E7B6F080ED56E1E
:1032C0007BCFD7FF7ACFD6FF948E949C400EAF6E03
:1032D000040EAC6E900EAB6EF26A9D889D8A9E6A5B
:1032E000F28CF28E1200120003D002D012001200F3
:0C32F000D9CFE6FFE552E7CFD9FF12006E
:10330000DACFE4FFE652F2B2F292E552E5CFDAFF0D
:023310001100AA
:0E3312000300060000007E0F00000100000016
:103320001F230000000F000050000000FA220000E0
:08333000500F00002500000011
:08333800CDEC10F03AD8000EB4
:10334000E66EE66A320EE66EE66A010EE66E80EC26
:1033500001F0106E050EE15E1050800EE66EBDECC1
:103360000CF0E552800EE66EF6EC0BF0E5520F0124
:10337000735101E09D8A7251F0E07351EEE0CDECA3
:1033800010F00F01200E566F576F586F596F676F0F
:10339000686F696F6A6F0DD80F01736B800EE66EF0
:1033A000050EE66E5FEC0BF0E552E5529CEC08F082
:1033B000D4D7E66AE66A500EE66E0F0E08D8010E04
:1033C000E66EE66A610EE66E0F0EE7EF19F0E66E46
:0E33D000ADEC10F0E552E552E552E552120068
:0233DE00800E5F
:1033E000F36E00EE00F00F0E01D81200EA6002D07A
:0E33F000EE6AFCD7F350E9601200EE6AFCD7DB
:0634000059EF11F012006B
:020000040030CA
:0100010002FC
:0100020019E4
:010003001EDE
:010005008179
:010006008178
:00000001FF
